:020000040800F2
:1000000000000220AD590108F9590108F959010809
:10001000F9590108F9590108F959010800000000CF
:10002000000000000000000000000000F959010875
:10003000F959010800000000F959010809380108C0
:10004000F9590108F9590108F9590108F959010844
:10005000F9590108F9590108BD1E0008C91E000818
:10006000D51E0008E11E0008ED1E0008F959010820
:10007000F9590108F9590108F9590108F959010814
:10008000F9590108F9590108F9590108F959010804
:10009000F9590108F9590108F9590108F91E000830
:1000A000F9590108F9590108F9590108F9590108E4
:1000B000F9590108F9590108F9590108F9590108D4
:1000C000F9590108F9590108F9590108F9590108C4
:1000D000F9590108F9590108F9590108317900085D
:1000E000211F0008F9590108F9590108F9590108B7
:1000F000F9590108F9590108F9590108F959010894
:10010000F9590108F9590108F9590108F959010883
:10011000F9590108F9590108F95901087D920008B7
:10012000F9590108F9590108F9590108F959010863
:10013000F95901086DE40008F9590108F959010855
:10014000F9590108F9590108F9590108F959010843
:10015000F9590108F9590108F9590108F959010833
:10016000F9590108F9590108F9590108F959010823
:10017000F9590108F9590108F9590108000000006E
:08018000F9590108F9590108C1
:1001880080B400AFBFF34F8F0549054BDB6803F41C
:10019800E062044B1343CB60BFF34F8F00BFFDE712
:1001A80000ED00E00400FA0580B500AF13F02EFB67
:1001B80002200EF069FB03200EF066FB2B4B2C4A45
:1001C8001A602C4B2C4A1A600BF0D4FD2B4B1B7871
:1001D800DBB203F00403002B0CD00BF0EBFC0BF0AC
:1001E80033FD264B1B78DBB223F00403DAB2234B32
:1001F8001A7025E0214B1B78DBB203F00803002BB3
:100208000BD01F480BF08EFD1C4B1B78DBB223F084
:100218000803DAB2194B1A7012E009F067F90EF008
:10022800C3F810F039FE0346002B09D0134B1B7896
:10023800DBB2022B05D0114B1B78DBB2012B00D0AF
:10024800C2E713F0F9FA0D4B1B78DBB20D481946DB
:1002580007F0E8F9094B1B78DBB2022B01D101F05A
:1002680063F9FFF78DFF0023184680BD280500209D
:10027800451901082405002065190108C40100205A
:10028800FC590108045A010880B582B000AF7860B3
:100298007B681B68044A934203D101F005FD09F00D
:1002A80061F90837BD4680BD0014004080B586B0AE
:1002B80000AFF860B960C7E900230123FB75234B41
:1002C8001B7E012B01D102233BE0204B01221A7631
:1002D8004CF2503000F0B6F90346FB75FB7D002B5D
:1002E8002BD1FB68002B05D13B78B868194600F084
:1002F80053FA16E0FB68012B05D13B88B86819460C
:1003080000F028FA0DE0FB68022B05D13B68B868BD
:10031800194600F0FDF904E0B868D7E9002300F0B9
:10032800D3F94CF2503000F08DF90346FB75084ABA
:10033800074B1B6923F001031361044B00221A7653
:10034800FB7D18461837BD4680BD00BF2C05002030
:10035800003C024080B586B000AFF860B960C7E9DC
:1003680000230023FB75204B1B7E012B01D10223A8
:1003780035E01D4B01221A761C4A1C4B1B6943F0C1
:1003880080731361194A194B1B6943F00073136199
:10039800154B03221A70144ABB685361FB68002B83
:1003A80005D13B78B868194600F0F6F916E0FB6805
:1003B800012B05D13B88B868194600F0CBF90DE050
:1003C800FB68022B05D13B68B868194600F0A0F914
:1003D80004E0B868D7E9002300F076F9FB7D1846F9
:1003E8001837BD4680BD00BF2C050020003C0240E8
:1003F80080B582B000AF00237B604B4BDB6803F411
:10040800F973B3F5F97F20D1484B1B78DBB2012B88
:1004180007D1464BDB687B60444B4FF0FF32DA6014
:100428000BE0424B1B78DBB2022B03D13F4B1B691D
:100438007B6002E03D4B5B697B6000F0CDF978683A
:1004480000F080F8394B00221A70374BDB6803F054
:100458000103002B4AD0344B0122DA60334B1B785E
:10046800DBB2012B2DD1314B5B68013B2F4A536026
:100478002E4B5B68002B15D02C4BDB687B607868B3
:1004880000F056F8294BDB680133284AD360274B24
:10049800DB687B60254B1B7ADBB27868194600F075
:1004A8007BFB23E04FF0FF337B60204A7B68D360FF
:1004B8001E4B00221A7000F0B7FC786800F038F87C
:1004C80014E01A4B1B78DBB2022B07D100F0ACFC0E
:1004D800164B1B69184600F02BF804E0134B5B69B8
:1004E800184600F025F8114B00221A700F4B1B78A4
:1004F800DBB2002B14D10C4A0B4B1B6923F0FF0312
:100508001361094A084B1B6923F080731361064A7B
:10051800054B1B6923F000731361044B00221A7604
:100528000837BD4680BD00BF003C02402C050020B6
:1005380080B483B000AF78600C37BD465DF8047BAB
:10054800704700BF80B483B000AF78600C37BD46F9
:100558005DF8047B704700BF80B400AF084B1B698F
:10056800002B07DA064B074A5A60054B064A5A60C1
:10057800002300E001231846BD465DF8047B704760
:10058800003C024023016745AB89EFCD80B400AF42
:10059800054A054B1B6943F00043136100231846C5
:1005A800BD465DF8047B7047003C024080B400AF54
:1005B800094B5B6903F00103002B07D0064B074A80
:1005C8009A60054B064A9A60002300E0012318460A
:1005D800BD465DF8047B7047003C02403B2A190881
:1005E8007F6E5D4C80B400AF054A054B5B6943F0F4
:1005F8000103536100231846BD465DF8047B70472C
:10060800003C024080B500AF074A074B1B78DBB2BD
:1006180043F00203DBB213704CF2503000F012F8D2
:100628000346184680BD00BF143C024080B400AFAA
:10063800034BDB691846BD465DF8047B704700BF75
:100648002C05002080B584B000AF78600023FB60E3
:100658001B4B0022DA6111F017FAF86010E07B6892
:10066800B3F1FF3F0CD07B68002B07D011F00CFAD8
:100678000246FB68D21A7B689A4201D903231AE022
:10068800104BDB6803F48033002BE8D10D4BDB689B
:1006980003F00103002B02D00A4B0122DA60094B58
:1006A800DB6803F4F973B3F5F97F03D100F094F82C
:1006B800012300E0002318461037BD4680BD00BF67
:1006C8002C050020003C024080B485B000AFF860E3
:1006D800C7E900230D4A0D4B1B6923F440731361CE
:1006E8000A4A0A4B1B6943F440731361074A074BD4
:1006F8001B6943F001031361F968D7E90023C1E9D5
:1007080000231437BD465DF8047B7047003C024067
:1007180080B483B000AF786039600D4A0C4B1B6918
:1007280023F4407313610A4A094B1B6943F40073AD
:100738001361074A064B1B6943F0010313617B6889
:100748003A681A600C37BD465DF8047B704700BFF5
:10075800003C024080B483B000AF78600B467B80D9
:100768000C4A0C4B1B6923F440731361094A094B6B
:100778001B6943F480731361064A064B1B6943F0F7
:10078800010313617B687A881A800C37BD465DF8CF
:10079800047B7047003C024080B483B000AF7860AF
:1007A8000B46FB700B4A0B4B1B6923F44073136118
:1007B800084A084B1B691361064A064B1B6943F03C
:1007C800010313617B68FA781A700C37BD465DF82F
:1007D800047B7047003C024080B400AF2F4BDB68BD
:1007E80003F01003002B08D02D4BDB6943F01003F6
:1007F8002B4AD361294B1022DA60284BDB6803F0BF
:100808002003002B08D0264BDB6943F00803244A59
:10081800D361224B2022DA60204BDB6803F04003CF
:10082800002B08D01E4BDB6943F004031C4AD3613C
:100838001A4B4022DA60194BDB6803F08003002B67
:1008480008D0174BDB6943F00203154AD361134BF9
:100858008022DA60114BDB6803F48073002B09D027
:100868000F4BDB6943F001030D4AD3610B4B4FF487
:100878008072DA60094BDB6803F00203002B08D0B2
:10088800074BDB6943F02003054AD361034B02227F
:10089800DA60BD465DF8047B704700BF003C02404B
:1008A8002C05002080B584B000AF78603960012342
:1008B800FB730023BB60314B1B7E012B01D102234C
:1008C80058E02E4B01221A764CF25030FFF7BAFE50
:1008D8000346FB73FB7B002B48D13B684FF0FF328C
:1008E8001A607B681B68012B15D17B681B69DAB21B
:1008F8007B685B681046194600F02CF94CF25030C2
:10090800FFF7A0FE0346FB731D4A1D4B1B6923F02E
:100918000403136128E07B689B68BB601CE07B686C
:100928001B69DBB2B868194600F036F94CF2503052
:10093800FFF788FE0346FB73114A114B1B6923F02E
:10094800FA031361FB7B002B03D03B68BA681A607B
:100958000AE0BB680133BB607B68DA687B689B6828
:100968001A44BB689A42DAD800F05EFA034B0022B8
:100978001A76FB7B18461037BD4680BD2C05002033
:10098800003C024080B584B000AF78600023FB7360
:10099800254B1B7E012B01D1022340E0224B012273
:1009A8001A76224A214B1B6943F0807313611F4A50
:1009B8001E4B1B6943F0007313611C4BF322DA6072
:1009C8007B681B68012B10D1174B02221A707B68B9
:1009D8005B68154A13617B681B69DAB27B685B68E0
:1009E8001046194600F0B6F818E00F4B01221A70AD
:1009F8007B68DB680C4A53607B689B680A4AD36053
:100A08007B681B69DAB2084B1A727B689A687B6844
:100A18001B69DBB21046194600F0BEF8FB7B18468E
:100A28001037BD4680BD00BF2C050020003C0240A9
:100A380080B584B000AF78600123FB73334B1B7E15
:100A4800012B01D102235DE0304B01221A767B682D
:100A58001B6803F00103002B18D07B685B68012B2F
:100A68000AD17B689A687B68DB681046194600F0F3
:100A7800E5F80346FB7309E07B689A687B68DB68E6
:100A88001046194600F0FCF80346FB737B681B68A8
:100A980003F00203002B07D07B681B69DBB2184602
:100AA80000F00EF90346FB737B681B6803F0040330
:100AB800002B15D07B681B7E03F02003D9B27B681E
:100AC8001B7E03F04003DAB27B681B7E23F07F03B2
:100AD800DBB2084611461A4600F00CF90346FB73D0
:100AE8007B681B6803F00803002B07D07B685B69F1
:100AF800DBB2184600F02EF90346FB73034B0022C5
:100B08001A76FB7B18461037BD4680BD2C050020A1
:100B180080B582B000AF78607B680F221A6000F061
:100B280047F903461A467B689A6000F04DF9034678
:100B38001A467B681A6100F02BF903461A467B684F
:100B48001A7600F061F903461A467B685A6108373D
:100B5800BD4680BD80B483B000AF03463960FB71E9
:100B68000C4A0C4B1B6923F440731361094A094B67
:100B78001B6943F0040313610649064B1A69FB79A4
:100B88001B02134343F480330B610C37BD465DF8F9
:100B9800047B7047003C024080B487B000AF7860A7
:100BA8000B46FB7000237B61FB78002B02D10023EE
:100BB8007B6110E0FB78012B03D14FF480737B61DC
:100BC80009E0FB78022B03D14FF400737B6102E04C
:100BD8004FF440737B61184A174B1B6923F4407329
:100BE80013611549144B1A697B6913430B61124A47
:100BF800114B1B6923F0F8031361F8233B613B6930
:100C080093FAA3F3FB60FB68B3FA83F37A6802FAFA
:100C180003F343F002030849074A126913430B61BF
:100C2800054A054B1B6943F4803313611C37BD46E5
:100C38005DF8047B704700BF003C024080B584B07B
:100C480000AF786039600023FB734CF25030FFF737
:100C5800F9FC0346FB73FB7B002B0AD10749074BC2
:100C68001B889AB27B689BB2DB439BB213409BB252
:100C78000B80FB7B18461037BD4680BD163C0240F2
:100C880080B584B000AF786039600023FB734CF204
:100C98005030FFF7D7FC0346FB73FB7B002B08D1D2
:100CA8000649064B1B889AB27B689BB213439BB2DA
:100CB8000B80FB7B18461037BD4680BD163C0240B2
:100CC80080B584B000AF0346FB710023FB734CF280
:100CD8005030FFF7B7FC0346FB73FB7B002B02D1B8
:100CE800034AFB791370FB7B18461037BD4680BD5D
:100CF800153C024080B584B000AF0346FB710B463B
:100D0800BB7113467B71FF23FB730023BB734CF24B
:100D18005030FFF797FC0346BB73BB7B002B11D108
:100D28000B4B1B78DBB203F01F03FB730849BA793E
:100D3800FB7B1343DAB27B791343DAB2FB791343B3
:100D4800DBB20B70BB7B18461037BD4680BD00BFB9
:100D5800143C024080B483B000AF0346FB710B4AD9
:100D68000A4B1B78DBB223F00C03DBB21370074984
:100D7800064B1B78DAB2FB791343DBB20B70002306
:100D880018460C37BD465DF8047B7047143C02409A
:100D980080B400AF054B5B69DBB223F01F03DBB205
:100DA8001846BD465DF8047B704700BF003C024012
:100DB80080B400AF034B1B889BB21846BD465DF854
:100DC800047B7047163C024080B483B000AFAA236E
:100DD800FB710C4B1B78DBB2CC2B02D1CC23FB7103
:100DE80009E0084B1B78DBB2552B02D15523FB7168
:100DF80001E0AA23FB71FB7918460C37BD465DF864
:100E0800047B7047153C024080B400AF054B1B784B
:100E1800DBB203F00C03DBB21846BD465DF8047B79
:100E2800704700BF143C024080B400AF1F4B1B68E2
:100E380003F40073002B17D01C4A1C4B1B6823F4C7
:100E480000731360194A194B1B6843F4006313605D
:100E5800164A164B1B6823F400631360134A134B9E
:100E68001B6843F400731360104B1B6803F4806322
:100E7800002B17D00D4A0D4B1B6823F480631360B9
:100E88000A4A0A4B1B6843F480531360074A074B0E
:100E98001B6823F480531360044A044B1B6843F413
:100EA80080631360BD465DF8047B7047003C0240D8
:100EB80080B582B000AF78607B68002B01D1012338
:100EC80011E07B685B79DBB2002B05D17B680022DF
:100ED8001A71786800F038FB7B6802225A717B68C7
:100EE80001225A71002318460837BD4680BD00BF4D
:100EF80080B582B000AF78607B68002B01D10123F8
:100F08000CE07B6802225A71786800F037FB7B6836
:100F180000225A717B6800221A710023184608378C
:100F2800BD4680BD80B483B000AF78600C37BD4645
:100F38005DF8047B704700BF80B483B000AF786071
:100F48000C37BD465DF8047B704700BF80B487B09E
:100F580000AFF860B9607A6000237B61FB681B7999
:100F6800012B01D1022320E0FB6801221A71FB68E2
:100F780002225A7100237B610AE0FB681B687A69C8
:100F88009200B9680A4412681A607B6901337B6170
:100F98007A697B689A42F0D3FB6801225A71FB6830
:100FA80000221A71FB681B681B6818461C37BD466F
:100FB8005DF8047B704700BF80B487B000AFF8606D
:100FC800B9607A6000237B61FB681B79012B01D132
:100FD800022328E0FB6801221A71FB6802225A7179
:100FE800FB681B68FA681268926842F001029A600E
:100FF80000237B610AE0FB681B687A699200B96884
:101008000A4412681A607B6901337B617A697B68DC
:101018009A42F0D3FB6801225A71FB6800221A71C8
:10102800FB681B681B6818461C37BD465DF8047BC7
:10103800704700BF80B483B000AF78607B685B798D
:10104800DBB218460C37BD465DF8047B704700BF1D
:1010580080B500AF0A4B98470A4BDB6803F0800362
:10106800002B02D0074B8022DA60064BDB6803F0C6
:101078004003002B02D0034B4022DA6080BD00BF42
:1010880061050008003C024080B584B000AF00F064
:1010980071F8F860FB68002B00D10DE0002000F02B
:1010A80029FAB860002000F00BFA7860BA687B680B
:1010B8009A4201D100F090F81037BD4680BD00BFBC
:1010C80080B586B000AF78603960234B1B68002B71
:1010D80002D17B68204A13603A687B68D31A132BC5
:1010E8001ADC3B6801337B6105E07B69013B1B78B7
:1010F800FF2B00D006E07B69013B7B617A697B6846
:101108009A42F2D87A69144B1B68D31A3B61124B86
:1011180000221A603B691AE07A683B6813445B084E
:10112800FB60FB681B68B3F1FF3F0BD13B68043BD6
:101138001B68B3F1FF3F05D17868F968FFF7C0FF76
:10114800034604E0F8683968FFF7BAFF0346184613
:101158001837BD4680BD00BFC801002080B500AF6C
:101168004FF000600249FFF7ABFF0346184680BD09
:1011780000FC070880B500AF03480449FFF7A0FF4B
:101188000346184680BD00BF0000080800FC0F0891
:1011980090B583B000AF78603960FFF759FF7B687E
:1011A800B3F1006F0FD37B68094A93420BD87B6871
:1011B80023F003013B681A464FF000030220054C58
:1011C800A04703463B603B6818460C37BD4690BDB8
:1011D800FCFF0F08B502000880B588B000AFFFF724
:1011E800C9FFF861FB69002B01D1002343E0FFF739
:1011F8002FFF0023BB6100237B600823FB60FB6992
:1012080003F1006303F500231D4A934202D801232A
:101218003B6117E0FB6903F1006303F50023194AFA
:10122800934202D802233B610CE0FB6903F100639F
:1012380003F50023144A934202D803233B6101E0DB
:1012480004233B6102237B613A1D07F11803104612
:1012580019460E4B98470346002B01D0BB690AE09C
:101268004CF250300A4B98470346002B02D04CF200
:10127800503300E03B6918462037BD4680BD00BFAB
:10128800FFFF0908FFFF0B08FFFF0D08AD08000866
:101298004D06000890B587B000AFF860B9601346F6
:1012A800FB80FFF7D5FEFB68B3F1006F03D3FB6843
:1012B800B3F1016F05D92848F968284B98470023EE
:1012C80045E0BB683B610023FB8217E0FA8AFB68B4
:1012D800D118FB8A9B089BB29B003A6913441B6890
:1012E8001A464FF0000302201D4CA0470346002B6E
:1012F80001D0FB8A2BE0FB8A0433FB82FB8A1A1D90
:10130800FB889A42E2DDFA8AFB889A4201D1FB8A7D
:101318001DE0FB8A043BFB8214E0FA8AFB68D118C3
:10132800FB8ABA6813441B78DAB24FF00003002036
:101338000B4CA0470346002B01D0FB8A07E0FB8A31
:101348000133FB82FA8AFB889A42E6D3FB88184667
:101358001C37BD4690BD00BF0C5A010881760008B5
:10136800B502000880B485B000AF78600023BB6088
:101378000023FB6010E07A68FB6822FA03F303F0AD
:101388000102FB68C3F11F0302FA03F3BA681343AF
:10139800BB60FB680133FB60FB681F2BEBDDBB68A0
:1013A80018461437BD465DF8047B704790B589B080
:1013B80000AF7860396000237B733D4BBB607B686E
:1013C8003B6107F1080318463A4B98470346002B40
:1013D80001D0002367E0364B01229A600120364B8A
:1013E80098473B689B08FB613B7B012B01D102239B
:1013F80059E001233B7302237B73BB68BA68926888
:1014080042F001029A600023BB6110E0BC68BB692E
:101418009B003A6913441B681846FFF7A3FF03466D
:1014280023607B6804337B60BB690133BB61BA69A5
:10143800FB699A42EAD301237B7300233B73BB68A1
:101448001B687B617869FFF78DFF78613B6803F063
:101458000303FB611EE07B685A1C7A601B781A46FE
:101468007B6953407B610023BB6110E07B6903F01B
:101478000103002B05D07B695A08104B53407B6150
:1014880002E07B695B087B61BB690133BB61BB69B7
:10149800072BEBD9FB695A1EFA61002BDBD17B695C
:1014A800DB437B617B6918462437BD4690BD00BF8E
:1014B80000300240B90E0008A91A01082083B8EDCF
:1014C80080B582B000AF78607B68002B02D1FFF74F
:1014D80045FE78607B68002B01D1002305E04FF0C2
:1014E80000607968FFF762FF034618460837BD4673
:1014F80080BD00BF80B582B000AF78607B68002BEC
:1015080002D1FFF737FE78607B68002B01D10023FA
:1015180004E004487968FFF749FF0346184608378E
:10152800BD4680BD0000080880B500AF034B0448E5
:101538001946044B9847014B984780BD6500002029
:10154800185A01088176000880B485B000AF786029
:101558000023FB60084A084B1B6B43F4805313635A
:10156800054B1B6B03F48053FB60FB681437BD46C7
:101578005DF8047B704700BF0038024080B483B038
:1015880000AF7860084A084B1B6943F48053136125
:10159800054A054B1B6923F4805313610C37BD467C
:1015A8005DF8047B704700BF0038024080B489B002
:1015B80000AF7860396000237B6100233B61002322
:1015C800BB610023FB616DE1FB69012202FA03F3B1
:1015D8007B613B681A687B6913403B613A697B69A8
:1015E8009A4240F05C813B685B68022B03D03B6801
:1015F8005B68122B22D1FB69DA087B68083253F842
:101608002230BB61FB6903F007039B001A460F23D6
:101618009340DB43BA691340BB613B681B69FA69B5
:1016280002F0070292009340BA691343BB61FB6959
:10163800DA087B680832B96943F822107B681B68AE
:10164800BB61FB695B001A4603239340DB43BA691D
:101658001340BB613B685B6803F00303FA695200FF
:101668009340BA691343BB617B68BA691A603B68E7
:101678005B68012B0BD03B685B68022B07D03B688B
:101688005B68112B03D03B685B68122B2FD17B68FA
:101698009B68BB61FB695B001A4603239340DB43ED
:1016A800BA691340BB613B68DB68FA695200934032
:1016B800BA691343BB617B68BA699A607B685B68E7
:1016C800BB61FB69012202FA03F3DB43BA691340E9
:1016D800BB613B685B6803F010031A09FB6902FAF7
:1016E80003F3BA691343BB617B68BA695A607B68C4
:1016F800DB68BB61FB695B001A4603239340DB434D
:10170800BA691340BB613B689B68FA695200934011
:10171800BA691343BB617B68BA69DA603B685B6886
:1017280003F08053002B00F0BA800023FB60624A6C
:10173800614B5B6C43F4804353645F4B5B6C03F415
:101748008043FB60FB685D4AFB699B08023352F8E3
:101758002330BB61FB6903F003039B001A460F2388
:101768009340DB43BA691340BB617B68544A934298
:1017780031D07B68534A93422BD07B68524A9342BC
:1017880025D07B68514A93421FD07B68504A9342C8
:1017980019D07B684F4A934213D07B684E4A9342D4
:1017A8000DD07B684D4A934207D07B684C4A9342E0
:1017B80001D1082310E009230EE007230CE00623DB
:1017C8000AE0052308E0042306E0032304E00223DB
:1017D80002E0012300E00023FA6902F0030292000C
:1017E8009340BA691343BB613449FB699B080233D0
:1017F800BA6941F823203B4B1B68BB613B69DB435B
:10180800BA691340BB613B685B6803F48033002B03
:1018180003D0BA693B691343BB61324ABB691360A1
:10182800304B5B68BB613B69DB43BA691340BB6102
:101838003B685B6803F40033002B03D0BA693B694B
:101848001343BB61274ABB695360264B9B68BB6146
:101858003B69DB43BA691340BB613B685B6803F4CF
:101868008013002B03D0BA693B691343BB611D4A3F
:10187800BB6993601B4BDB68BB613B69DB43BA699F
:101888001340BB613B685B6803F40013002B03D073
:10189800BA693B691343BB61124ABB69D360FB69F0
:1018A8000133FB61FB690F2B7FF68EAE2437BD46F3
:1018B8005DF8047B704700BF0038024000380140E3
:1018C800000002400004024000080240000C0240F0
:1018D800001002400014024000180240001C0240A0
:1018E80000200240003C014080B487B000AF78601F
:1018F800396000233B610023FB600023BB600023A9
:101908007B61D4E07B69012202FA03F33B613A6808
:101918003B691340FB60FA683B699A4240F0C48017
:101928007B681A687B695B00194603238B40DB439D
:101938001A407B681A607B69DA087B69D9087B687A
:10194800083153F821107B6903F007039B00184600
:101958000F238340DB4319407B68083243F8221089
:101968007B689A687B695B00194603238B40DB43DD
:101978001A407B689A607B685A687B69012101FA82
:1019880003F3DB431A407B685A607B68DA687B693B
:101998005B00194603238B40DB431A407B68DA60FF
:1019A800474A7B699B08023352F82330BB607B6946
:1019B80003F003039B001A460F239340BA681340B1
:1019C800BB607B683F4A934231D07B683E4A934272
:1019D8002BD07B683D4A934225D07B683C4A934292
:1019E8001FD07B683B4A934219D07B683A4A93429E
:1019F80013D07B68394A93420DD07B68384A9342AA
:101A080007D07B68374A934201D1082310E00923A5
:101A18000EE007230CE006230AE0052308E0042370
:101A280006E0032304E0022302E0012300E0002390
:101A38007A6902F00302920003FA02F2BB689A4242
:101A480032D17B6903F003039B001A460F239340AE
:101A5800BB601B487B699B0819497A699208023266
:101A680051F82210BA68D2430A40023340F82320C2
:101A78001D491D4B1A68FB68DB4313400B601A496C
:101A8800194B5A68FB68DB4313404B601649164BE9
:101A98009A68FB68DB4313408B601349124BDA6882
:101AA800FB68DB431340CB607B6901337B617B6957
:101AB8000F2B7FF627AF1C37BD465DF8047B7047B8
:101AC80000380140000002400004024000080240C3
:101AD800000C0240001002400014024000180240AE
:101AE800001C024000200240003C014080B485B048
:101AF80000AF78600B467B807B681A697B8813404F
:101B0800002B02D00123FB7301E00023FB73FB7B56
:101B180018461437BD465DF8047B704780B483B01F
:101B280000AF78600B467B8013467B707B78002B78
:101B380003D07A887B689A6103E07B881A047B6803
:101B48009A610C37BD465DF8047B704780B483B05A
:101B580000AF78600B467B807B685A697B885A4067
:101B68007B685A610C37BD465DF8047B704700BF3F
:101B780080B485B000AF78600B467B804FF480332B
:101B8800FB607A88FB681343FB60FA687B68DA615C
:101B98007A887B68DA61FA687B68DA617B68DB6976
:101BA800FB607B68DB6903F48033002B01D00023E2
:101BB80000E0012318461437BD465DF8047B7047E2
:101BC80080B582B000AF0346FB80084B5A69FB889A
:101BD8001340002B06D0054AFB885361FB88184642
:101BE80000F0A2F90837BD4680BD00BF003C0140A7
:101BF80080B483B000AF0346FB800C37BD465DF868
:101C0800047B704780B588B000AF0023BB60184ADA
:101C1800174B1B6B43F008031363154B1B6B03F047
:101C28000803BB60BB6800237B60114A104B1B6B29
:101C380043F0080313630E4B1B6B03F008037B6030
:101C48007B684FF40063FB6001233B6100237B61E9
:101C58000023BB610023FB6107F10C03054819460B
:101C6800FFF7A4FC00F008F82037BD4680BD00BF90
:101C780000380240000C024080B500AF03484FF422
:101C880000610122FFF74AFF80BD00BF000C02403F
:101C980080B500AF03484FF400610022FFF73EFF14
:101CA80080BD00BF000C024080B500AF02484FF471
:101CB8000061FFF74BFF80BD000C024080B588B083
:101CC80000AF786039603B68012202FA03F3BB6019
:101CD800264BFB6001233B6100237B610023BB6132
:101CE80007F1080378681946FFF760FC3B68002B8A
:101CF80002D10623FB6128E03B68012B02D10723B0
:101D0800FB6122E03B68022B02D10823FB611CE047
:101D18003B68032B02D10923FB6116E03B68042BC7
:101D280002D10A23FB6110E03B68042B05D93B680C
:101D3800092B02D81723FB6107E03B68092B04D95C
:101D48003B680F2B01D82823FB61FB69DBB25BB230
:101D580018460F21002210F0C1FEFB69DBB25BB20E
:101D6800184610F0D7FE2037BD4680BD0000211070
:101D780080B582B000AF7860396038682D49052297
:101D880012F044FC0346002B01D17B684DE0386813
:101D98002949062212F03AFC0346002B02D17B683F
:101DA800043342E038682549072212F02FFC034625
:101DB800002B02D17B68083337E0386820490522B8
:101DC80012F024FC0346002B02D17B680C332CE074
:101DD80038681C49032212F019FC0346002B02D173
:101DE8007B68103321E038681749032212F00EFC93
:101DF8000346002B02D17B68143316E03868134978
:101E0800042212F003FC0346002B02D17B68203326
:101E18000BE038680E49042212F0F8FB0346002B49
:101E280002D17B68243300E0002318460837BD46FA
:101E380080BD00BF2C5A0108345A01083C5A0108D9
:101E4800445A01084C5A0108505A0108545A0108CA
:101E58005C5A010880B584B000AF78603960786852
:101E68003968FFF785FFF860FB68002B02D0FB6834
:101E78001B6801E04FF0FF3318461037BD4680BDA0
:101E880080B586B000AFF860B9607A60F868B96864
:101E9800FFF76EFF78617B69002B04D07B697A6855
:101EA8001A607B6801E04FF0FF3318461837BD46CB
:101EB80080BD00BF80B500AF0120FFF781FE80BD67
:101EC80080B500AF0220FFF77BFE80BD80B500AF74
:101ED8000420FFF775FE80BD80B500AF0820FFF72E
:101EE8006FFE80BD80B500AF1020FFF769FE80BD92
:101EF80080B500AF2020FFF763FE4020FFF760FEAB
:101F08008020FFF75DFE4FF48070FFF759FE4FF415
:101F18000070FFF755FE80BD80B500AF4FF48060BC
:101F2800FFF74EFE80BD00BF80B582B000AF03460C
:101F3800FB8007F0BDFA09F0FBFF0837BD4680BDFE
:101F480080B582B000AF78607B68002B01D1012397
:101F58001DE07B6893F83930DBB2002B06D17B6833
:101F6800002283F83820786805F068FA7B68022236
:101F780083F839207B681A687B6804331046194651
:101F880003F0DCF97B68012283F839200023184626
:101F98000837BD4680BD00BF80B582B000AF78600D
:101FA8007B68022283F839207B681B681A6A41F231
:101FB80011131340002B0FD17B681B681A6A40F27B
:101FC80044431340002B07D17B681B687A6812686A
:101FD800126822F001021A60786805F05FFA7B68DF
:101FE800002283F839207B68002283F838200023F8
:101FF80018460837BD4680BD80B483B000AF78600E
:102008000C37BD465DF8047B704700BF80B483B0D1
:1020180000AF78600C37BD465DF8047B704700BFA1
:1020280080B483B000AF78607B68022283F83920DF
:102038007B681B687A681268126842F001021A60AD
:102048007B68012283F83920002318460C37BD46E7
:102058005DF8047B704700BF80B483B000AF786040
:102068007B68022283F839207B681B681A6A41F270
:1020780011131340002B0FD17B681B681A6A40F2BA
:1020880044431340002B07D17B681B687A681268A9
:10209800126822F001021A607B68012283F8392055
:1020A800002318460C37BD465DF8047B704700BF17
:1020B80080B483B000AF78607B681B687A68126868
:1020C800D26842F00102DA607B681B687A6812689D
:1020D800126842F001021A60002318460C37BD4608
:1020E8005DF8047B704700BF80B483B000AF7860B0
:1020F8007B681B687A681268D26822F00102DA608D
:102108007B681B681A6A41F211131340002B0FD128
:102118007B681B681A6A40F244431340002B07D1BE
:102128007B681B687A681268126822F001021A60DC
:10213800002318460C37BD465DF8047B704700BF86
:1021480090B585B000AFF860B9601346FB80FB68B6
:1021580093F83930DBB2022B01D1022337E0FB6858
:1021680093F83930DBB2012B0BD1BB68002B04D1BB
:10217800FB88002B01D0012329E0FB68022283F8A9
:102188003920FB68DB69144ADA63FB68DB69134AA8
:102198009A64FB68D969BA68FB681B682C331C46CB
:1021A800FB8808461146224610F094FEFB681B681F
:1021B800FA681268D26842F48072DA60FB681B68B9
:1021C800FA681268126842F001021A600023184681
:1021D8001437BD4690BD00BFC1570008E956000836
:1021E80080B483B000AF78607B681B687A68126837
:1021F800D26822F48072DA607B681B681A6A41F23E
:1022080011131340002B0FD17B681B681A6A40F228
:1022180044431340002B07D17B681B687A68126817
:10222800126822F001021A607B68012283F83920C3
:10223800002318460C37BD465DF8047B704700BF85
:1022480080B582B000AF78607B68002B01D1012394
:102258001DE07B6893F83930DBB2002B06D17B6830
:10226800002283F83820786805F00EF97B6802228E
:1022780083F839207B681A687B680433104619464E
:1022880003F05CF87B68012283F8392000231846A4
:102298000837BD4680BD00BF80B582B000AF78600A
:1022A8007B68022283F839207B681B681A6A41F22E
:1022B80011131340002B0FD17B681B681A6A40F278
:1022C80044431340002B07D17B681B687A68126867
:1022D800126822F001021A60786800F017F87B682B
:1022E800002283F839207B68002283F838200023F5
:1022F80018460837BD4680BD80B483B000AF78600B
:102308000C37BD465DF8047B704700BF80B483B0CE
:1023180000AF78600C37BD465DF8047B704700BF9E
:1023280080B582B000AF786039607B681B6818465A
:102338003968012203F01EFA7B681B68104A934231
:1023480004D07B681B680F4A934201D1012300E047
:102358000023002B07D07B681B687A681268526CD0
:1023680042F400425A647B681B687A6812681268F3
:1023780042F001021A60002318460837BD4680BDA6
:10238800000001400004014080B582B000AF7860D1
:1023980039607B681B6818463968002203F0EAF93F
:1023A8007B681B68204A934204D07B681B681F4ADD
:1023B800934201D1012300E00023002B17D07B6852
:1023C8001B681A6A41F211131340002B0FD17B6866
:1023D8001B681A6A40F244431340002B07D17B68FC
:1023E8001B687A681268526C22F400425A647B684F
:1023F8001B681A6A41F211131340002B0FD17B6836
:102408001B681A6A40F244431340002B07D17B68CB
:102418001B687A681268126822F001021A600023A9
:1024280018460837BD4680BD000001400004014041
:1024380080B582B000AF786039603B680C2B41D81A
:1024480001A252F823F000BF85240008CD2400081B
:10245800CD240008CD24000897240008CD240008C6
:10246800CD240008CD240008A9240008CD240008A4
:10247800CD240008CD240008BB2400087B681B6815
:102488007A681268D26842F00202DA601BE07B6860
:102498001B687A681268D26842F00402DA6012E0B7
:1024A8007B681B687A681268D26842F00802DA60B2
:1024B80009E07B681B687A681268D26842F01002EB
:1024C800DA6000E000BF7B681B68184639680122A3
:1024D80003F050F97B681B68104A934204D07B686C
:1024E8001B680F4A934201D1012300E00023002B0F
:1024F80007D07B681B687A681268526C42F4004205
:102508005A647B681B687A681268126842F0010294
:102518001A60002318460837BD4680BD00000140F8
:102528000004014080B582B000AF786039603B6834
:102538000C2B41D801A252F823F000BF79250008DE
:10254800C1250008C1250008C12500088B25000801
:10255800C1250008C1250008C12500089D250008DF
:10256800C1250008C1250008C1250008AF250008BD
:102578007B681B687A681268D26822F00202DA6007
:102588001BE07B681B687A681268D26822F0040234
:10259800DA6012E07B681B687A681268D26822F0F9
:1025A8000802DA6009E07B681B687A681268D268FA
:1025B80022F01002DA6000E000BF7B681B68184652
:1025C8003968002203F0D6F87B681B68204A9342DA
:1025D80004D07B681B681F4A934201D1012300E0A5
:1025E8000023002B17D07B681B681A6A41F211136D
:1025F8001340002B0FD17B681B681A6A40F24443D2
:102608001340002B07D17B681B687A681268526CEC
:1026180022F400425A647B681B681A6A41F211135B
:102628001340002B0FD17B681B681A6A40F24443A1
:102638001340002B07D17B681B687A681268126800
:1026480022F001021A60002318460837BD4680BDF3
:10265800000001400004014090B585B000AFF8606B
:10266800B9607A607B80FB6893F83930DBB2022B63
:1026780001D10223D2E0FB6893F83930DBB2012B99
:102688000BD17B68002B04D17B88002B01D0012360
:10269800C4E0FB68022283F83920BB680C2B00F2E7
:1026A800958001A252F823F0E5260008D5270008F6
:1026B800D5270008D527000821270008D5270008B6
:1026C800D5270008D52700085D270008D52700086A
:1026D800D5270008D527000899270008FB681B6A3A
:1026E800504ADA63FB681B6A4F4A9A64FB68196AA6
:1026F8007A68FB681B6834331C467B880846114699
:10270800224610F0E7FBFB681B68FA681268D2687B
:1027180042F40072DA605AE0FB685B6A414ADA63A5
:10272800FB685B6A404A9A64FB68596A7A68FB6886
:102738001B6838331C467B8808461146224610F031
:10274800C9FBFB681B68FA681268D26842F48062A9
:10275800DA603CE0FB689B6A324ADA63FB689B6A92
:10276800314A9A64FB68996A7A68FB681B683C334B
:102778001C467B8808461146224610F0ABFBFB68D6
:102788001B68FA681268D26842F40062DA601EE0D8
:10279800FB68DB6A234ADA63FB68DB6A224A9A64CD
:1027A800FB68D96A7A68FB681B6840331C467B88DB
:1027B80008461146224610F08DFBFB681B68FA6834
:1027C8001268D26842F48052DA6000E000BFFB6809
:1027D8001B681846B968012202F0CCFFFB681B6829
:1027E800124A934204D0FB681B68114A934201D1F4
:1027F800012300E00023002B07D0FB681B68FA6860
:102808001268526C42F400425A64FB681B68FA680A
:102818001268126842F001021A6000231846143741
:10282800BD4690BD79560008E956000800000140F1
:102838000004014080B582B000AF786039603B6821
:102848000C2B41D801A252F823F000BF89280008B8
:10285800D1280008D1280008D12800089B280008A2
:10286800D1280008D1280008D1280008AD28000880
:10287800D1280008D1280008D1280008BF2800085E
:102888007B681B687A681268D26822F40072DA6082
:102898001BE07B681B687A681268D26822F4806241
:1028A800DA6012E07B681B687A681268D26822F4E2
:1028B8000062DA6009E07B681B687A681268D2688F
:1028C80022F48052DA6000E000BF7B681B6818467B
:1028D8003968002202F04EFF7B681B68224A934247
:1028E80004D07B681B68214A934201D1012300E090
:1028F8000023002B17D07B681B681A6A41F211135A
:102908001340002B0FD17B681B681A6A40F24443BE
:102918001340002B07D17B681B687A681268526CD9
:1029280022F400425A647B681B681A6A41F2111348
:102938001340002B0FD17B681B681A6A40F244438E
:102948001340002B07D17B681B687A6812681268ED
:1029580022F001021A607B68012283F839200023E3
:1029680018460837BD4680BD0000014000040140FC
:1029780080B582B000AF78607B68002B01D101235D
:102988001DE07B6893F83930DBB2002B06D17B68F9
:10299800002283F83820786800F046F87B68022225
:1029A80083F839207B681A687B6804331046194617
:1029B80002F0C4FC7B68012283F839200023184602
:1029C8000837BD4680BD00BF80B582B000AF7860D3
:1029D8007B68022283F839207B681B681A6A41F2F7
:1029E80011131340002B0FD17B681B681A6A40F241
:1029F80044431340002B07D17B681B687A68126830
:102A0800126822F001021A60786800F017F87B68F3
:102A1800002283F839207B68002283F838200023BD
:102A280018460837BD4680BD80B483B000AF7860D3
:102A38000C37BD465DF8047B704700BF80B483B097
:102A480000AF78600C37BD465DF8047B704700BF67
:102A580080B582B000AF786039607B681B68184623
:102A68003968012202F086FE7B681B68104A93428F
:102A780004D07B681B680F4A934201D1012300E010
:102A88000023002B07D07B681B687A681268526C99
:102A980042F400425A647B681B687A6812681268BC
:102AA80042F001021A60002318460837BD4680BD6F
:102AB800000001400004014080B582B000AF78609A
:102AC80039607B681B6818463968002202F052FE9C
:102AD8007B681B68224A934204D07B681B68214AA2
:102AE800934201D1012300E00023002B17D07B681B
:102AF8001B681A6A41F211131340002B0FD17B682F
:102B08001B681A6A40F244431340002B07D17B68C4
:102B18001B687A681268526C22F400425A647B6817
:102B28001B681A6A41F211131340002B0FD17B68FE
:102B38001B681A6A40F244431340002B07D17B6894
:102B48001B687A681268126822F001021A607B68B2
:102B5800012283F83920002318460837BD4680BD76
:102B6800000001400004014080B582B000AF7860E9
:102B780039603B680C2B41D801A252F823F000BF02
:102B8800BD2B0008052C0008052C0008052C0008A2
:102B9800CF2B0008052C0008052C0008052C000880
:102BA800E12B0008052C0008052C0008052C00085E
:102BB800F32B00087B681B687A681268D26842F0B9
:102BC8000202DA601BE07B681B687A681268D268C8
:102BD80042F00402DA6012E07B681B687A681268C7
:102BE800D26842F00802DA6009E07B681B687A68FC
:102BF8001268D26842F01002DA6000E000BF7B6819
:102C08001B6818463968012202F0B4FD7B681B680E
:102C1800104A934204D07B681B680F4A934201D143
:102C2800012300E00023002B07D07B681B687A682B
:102C38001268526C42F400425A647B681B687A68D6
:102C48001268126842F001021A6000231846083719
:102C5800BD4680BD000001400004014080B582B03F
:102C680000AF786039603B680C2B41D801A252F85C
:102C780023F000BFB12C0008F92C0008F92C00083B
:102C8800F92C0008C32C0008F92C0008F92C0008BE
:102C9800F92C0008D52C0008F92C0008F92C00089C
:102CA800F92C0008E72C00087B681B687A68126812
:102CB800D26822F00202DA601BE07B681B687A683F
:102CC8001268D26822F00402DA6012E07B681B689E
:102CD8007A681268D26822F00802DA6009E07B6834
:102CE8001B687A681268D26822F01002DA6000E085
:102CF80000BF7B681B6818463968002202F03AFD5D
:102D08007B681B68204A934204D07B681B681F4A73
:102D1800934201D1012300E00023002B17D07B68E8
:102D28001B681A6A41F211131340002B0FD17B68FC
:102D38001B681A6A40F244431340002B07D17B6892
:102D48001B687A681268526C22F400425A647B68E5
:102D58001B681A6A41F211131340002B0FD17B68CC
:102D68001B681A6A40F244431340002B07D17B6862
:102D78001B687A681268126822F001021A60002340
:102D880018460837BD4680BD0000014000040140D8
:102D980090B585B000AFF860B9607A607B80FB6859
:102DA80093F83930DBB2022B01D10223D2E0FB6861
:102DB80093F83930DBB2012B0BD17B68002B04D19F
:102DC8007B88002B01D00123C4E0FB68022283F832
:102DD8003920BB680C2B00F2958001A252F823F031
:102DE8001D2E00080D2F00080D2F00080D2F0008BC
:102DF800592E00080D2F00080D2F00080D2F000870
:102E0800952E00080D2F00080D2F00080D2F000823
:102E1800D12E0008FB681B6A504ADA63FB681B6AFC
:102E28004F4A9A64FB68196A7A68FB681B683433EE
:102E38001C467B8808461146224610F04BF8FB6872
:102E48001B68FA681268D26842F40072DA605AE0C5
:102E5800FB685B6A414ADA63FB685B6A404A9A64CA
:102E6800FB68596A7A68FB681B6838331C467B889C
:102E780008461146224610F02DF8FB681B68FA68D0
:102E88001268D26842F48062DA603CE0FB689B6AB0
:102E9800324ADA63FB689B6A314A9A64FB68996A2A
:102EA8007A68FB681B683C331C467B8808461146D9
:102EB800224610F00FF8FB681B68FA681268D2689F
:102EC80042F40062DA601EE0FB68DB6A234ADA63D8
:102ED800FB68DB6A224A9A64FB68D96A7A68FB68ED
:102EE8001B6840331C467B880846114622460FF073
:102EF800F1FFFB681B68FA681268D26842F48052D6
:102F0800DA6000E000BFFB681B681846B968012258
:102F180002F030FCFB681B68124A934204D0FB683D
:102F28001B68114A934201D1012300E00023002BC2
:102F380007D0FB681B68FA681268526C42F40042BA
:102F48005A64FB681B68FA681268126842F001024A
:102F58001A60002318461437BD4690BD79560008FC
:102F6800E9560008000001400004014080B582B025
:102F780000AF786039603B680C2B41D801A252F849
:102F880023F000BFC12F00080930000809300008ED
:102F980009300008D32F000809300008093000085C
:102FA80009300008E52F000809300008093000083A
:102FB80009300008F72F00087B681B687A681268D8
:102FC800D26822F40072DA601BE07B681B687A68BA
:102FD8001268D26822F48062DA6012E07B681B68AB
:102FE8007A681268D26822F40062DA6009E07B68C5
:102FF8001B687A681268D26822F48052DA6000E0AE
:1030080000BF7B681B6818463968002202F0B2FBD3
:103018007B681B68224A934204D07B681B68214A5C
:10302800934201D1012300E00023002B17D07B68D5
:103038001B681A6A41F211131340002B0FD17B68E9
:103048001B681A6A40F244431340002B07D17B687F
:103058001B687A681268526C22F400425A647B68D2
:103068001B681A6A41F211131340002B0FD17B68B9
:103078001B681A6A40F244431340002B07D17B684F
:103088001B687A681268126822F001021A607B686D
:10309800012283F83920002318460837BD4680BD31
:1030A800000001400004014080B582B000AF7860A4
:1030B8007B68002B01D101231DE07B6893F8393030
:1030C800DBB2002B06D17B68002283F838207868B1
:1030D80000F046F87B68022283F839207B681A687A
:1030E8007B6804331046194602F028F97B680122F0
:1030F80083F83920002318460837BD4680BD00BF35
:1031080080B582B000AF78607B68022283F83920EE
:103118007B681B681A6A41F211131340002B0FD108
:103128007B681B681A6A40F244431340002B07D19E
:103138007B681B687A681268126822F001021A60BC
:10314800786800F017F87B68002283F839207B68DC
:10315800002283F83820002318460837BD4680BD72
:1031680080B483B000AF78600C37BD465DF8047B4F
:10317800704700BF80B483B000AF78600C37BD469D
:103188005DF8047B704700BF80B582B000AF7860FF
:1031980039607B681B6818463968012202F0EAFA30
:1031A8007B681B687A681268126842F001021A602C
:1031B800002318460837BD4680BD00BF80B582B0E1
:1031C80000AF786039607B681B6818463968002250
:1031D80002F0D0FA7B681B681A6A41F21113134097
:1031E800002B0FD17B681B681A6A40F244431340D6
:1031F800002B07D17B681B687A681268126822F076
:1032080001021A60002318460837BD4680BD00BF7A
:1032180080B582B000AF786039603B680C2B41D82C
:1032280001A252F823F000BF65320008AD32000851
:10323800AD320008AD32000877320008AD32000820
:10324800AD320008AD32000889320008AD320008FE
:10325800AD320008AD3200089B3200087B681B685D
:103268007A681268D26842F00202DA601BE07B6872
:103278001B687A681268D26842F00402DA6012E0C9
:103288007B681B687A681268D26842F00802DA60C4
:1032980009E07B681B687A681268D26842F01002FD
:1032A800DA6000E000BF7B681B68184639680122B5
:1032B80002F060FA7B681B687A681268126842F04C
:1032C80001021A60002318460837BD4680BD00BFBA
:1032D80080B582B000AF786039603B680C2B41D86C
:1032E80001A252F823F000BF253300086D3300080F
:1032F8006D3300086D330008373300086D3300085C
:103308006D3300086D330008493300086D33000839
:103318006D3300086D3300085B3300087B681B6859
:103328007A681268D26822F00202DA601BE07B68D1
:103338001B687A681268D26822F00402DA6012E028
:103348007B681B687A681268D26822F00802DA6023
:1033580009E07B681B687A681268D26822F010025C
:10336800DA6000E000BF7B681B68184639680022F5
:1033780002F000FA7B681B681A6A41F211131340C5
:10338800002B0FD17B681B681A6A40F24443134034
:10339800002B07D17B681B687A681268126822F0D4
:1033A80001021A60002318460837BD4680BD00BFD9
:1033B80090B585B000AFF860B9607A607B80FB6833
:1033C80093F83930DBB2022B01D10223B7E0FB6856
:1033D80093F83930DBB2012B0BD17B68002B04D179
:1033E8007B88002B01D00123A9E0FB68022283F827
:1033F8003920BB680C2B00F2918001A252F823F00F
:103408003D34000825350008253500082535000815
:1034180077340008253500082535000825350008CB
:10342800B134000825350008253500082535000881
:10343800EB340008FB681B6A434ADA63FB681B6AC3
:10344800424A9A64FB68196AFB681B6834331C4655
:103458007A687B88084621460FF03CFDFB681B68AC
:10346800FA681268D26842F40072DA6057E0FB68C2
:103478005B6A354ADA63FB685B6A344A9A64FB68BC
:10348800596AFB681B6838331C467A687B8808468B
:1034980021460FF01FFDFB681B68FA681268D268A6
:1034A80042F48062DA603AE0FB689B6A264ADA6393
:1034B800FB689B6A254A9A64FB68996AFB681B68E3
:1034C8003C331C467A687B88084621460FF002FD8B
:1034D800FB681B68FA681268D26842F40062DA6016
:1034E8001DE0FB68DB6A184ADA63FB68DB6A174A87
:1034F8009A64FB68D96AFB681B6840331C467A6883
:103508007B88084621460FF0E5FCFB681B68FA68D3
:103518001268D26842F48052DA6000E000BFFB68AB
:103528001B681846B968012202F024F9FB681B6879
:10353800FA681268126842F001021A6000231846FD
:103548001437BD4690BD00BF0D570008E956000866
:1035580080B582B000AF786039603B680C2B41D8E9
:1035680001A252F823F000BFA5350008ED35000888
:10357800ED350008ED350008B7350008ED350008D1
:10358800ED350008ED350008C9350008ED350008AF
:10359800ED350008ED350008DB3500087B681B6851
:1035A8007A681268D26822F40072DA601BE07B68DD
:1035B8001B687A681268D26822F48062DA6012E0C6
:1035C8007B681B687A681268D26822F40062DA6045
:1035D80009E07B681B687A681268D26822F4805216
:1035E800DA6000E000BF7B681B6818463968002273
:1035F80002F0C0F87B681B681A6A41F21113134085
:10360800002B0FD17B681B681A6A40F244431340B1
:10361800002B07D17B681B687A681268126822F051
:1036280001021A607B68012283F8392000231846BA
:103638000837BD4680BD00BF80B582B000AF786056
:1036480039607B68002B01D101232DE07B6893F85A
:103658003930DBB2002B06D17B68002283F8382092
:10366800786800F055F87B68022283F839207B6877
:103678001A687B6804331046194601F05FFE7B68C0
:103688001B687A681268126822F008021A607B6860
:103698001B687A68126811683A680A431A607B687E
:1036A800012283F83920002318460837BD4680BD1B
:1036B80080B582B000AF78607B68022283F8392039
:1036C8007B681B681A6A41F211131340002B0FD153
:1036D8007B681B681A6A40F244431340002B07D1E9
:1036E8007B681B687A681268126822F001021A6007
:1036F800786800F017F87B68002283F839207B6827
:10370800002283F83820002318460837BD4680BDBC
:1037180080B483B000AF78600C37BD465DF8047B99
:10372800704700BF80B483B000AF78600C37BD46E7
:103738005DF8047B704700BF80B582B000AF786049
:1037480039607B681B6818460021012202F012F8D4
:103758007B681B6818460421012202F00BF87B687D
:103768001B680D4A934204D07B681B680B4A93423E
:1037780001D1012300E00023002B07D07B681B68E0
:103788007A681268526C42F400425A640023184660
:103798000837BD4680BD00BF00000140000401405D
:1037A80080B582B000AF786039607B681B681846C6
:1037B8000021002201F0DEFF7B681B681846042107
:1037C800002201F0D7FF7B681B68214A934204D08E
:1037D8007B681B681F4A934201D1012300E0002344
:1037E800002B17D07B681B681A6A41F2111313402B
:1037F800002B0FD17B681B681A6A40F244431340C0
:10380800002B07D17B681B687A681268526C22F417
:1038180000425A647B681B681A6A41F2111313400C
:10382800002B0FD17B681B681A6A40F2444313408F
:10383800002B07D17B681B687A681268126822F02F
:1038480001021A60002318460837BD4680BD00BF34
:10385800000001400004014080B582B000AF7860EC
:1038680039607B681B687A681268D26842F0020285
:10387800DA607B681B687A681268D26842F00402D2
:10388800DA607B681B6818460021012201F072FF8C
:103898007B681B6818460421012201F06BFF7B68D6
:1038A8001B680D4A934204D07B681B680B4A9342FD
:1038B80001D1012300E00023002B07D07B681B689F
:1038C8007A681268526C42F400425A64002318461F
:1038D8000837BD4680BD00BF00000140000401401C
:1038E80080B582B000AF786039607B681B687A6801
:1038F8001268D26822F00202DA607B681B687A6874
:103908001268D26822F00402DA607B681B681846E5
:103918000021002201F02EFF7B681B681846042155
:10392800002201F027FF7B681B68214A934204D0DC
:103938007B681B681F4A934201D1012300E00023E2
:10394800002B17D07B681B681A6A41F211131340C9
:10395800002B0FD17B681B681A6A40F2444313405E
:10396800002B07D17B681B687A681268526C22F4B6
:1039780000425A647B681B681A6A41F211131340AB
:10398800002B0FD17B681B681A6A40F2444313402E
:10399800002B07D17B681B687A681268126822F0CE
:1039A80001021A60002318460837BD4680BD00BFD3
:1039B800000001400004014080B586B000AF786087
:1039C800396000237B6100233B610023FB607B6837
:1039D800002B01D1012381E07B6893F83930DBB2F9
:1039E800002B06D17B68002283F83820786800F025
:1039F800A9F87B68022283F839207B681B687A68FB
:103A08001268926822F007029A607B681A687B68DD
:103A180004331046194601F091FC7B681B689B68CB
:103A28007B617B681B689B693B617B681B681B6AC1
:103A3800FB603B681B687A6913437B613B6923F42D
:103A4800407323F003033B613B689A683B689B69BA
:103A58001B0213433A6913433B613B6923F44063F8
:103A680023F00C033B613B6923F4704323F0F0031C
:103A78003B613B68DA683B68DB691B0213433A69C0
:103A880013433B613B681B691A013B681B6A1B03B4
:103A980013433A6913433B61FB6823F02203FB603D
:103AA800FB6823F08803FB603B685A683B685B69E6
:103AB8001B011343FA681343FB607B681B687A6930
:103AC8009A607B681B683A699A617B681B68FA6828
:103AD8001A627B68012283F83920002318461837B8
:103AE800BD4680BD80B582B000AF78607B68022299
:103AF80083F839207B681B681A6A41F21113134056
:103B0800002B0FD17B681B681A6A40F244431340AC
:103B1800002B07D17B681B687A681268126822F04C
:103B280001021A60786800F017F87B68002283F8B1
:103B380039207B68002283F838200023184608378C
:103B4800BD4680BD80B483B000AF78600C37BD46F9
:103B58005DF8047B704700BF80B483B000AF786025
:103B68000C37BD465DF8047B704700BF80B582B056
:103B780000AF786039603B68002B02D0042B08D076
:103B88000FE07B681B6818460021012201F0F2FD56
:103B980016E07B681B6818460421012201F0EAFD43
:103BA8000EE07B681B6818460021012201F0E2FD47
:103BB8007B681B6818460421012201F0DBFD00BF69
:103BC8007B681B687A681268126842F001021A6002
:103BD800002318460837BD4680BD00BF80B582B0B7
:103BE80000AF786039603B68002B02D0042B08D006
:103BF8000FE07B681B6818460021002201F0BAFD1F
:103C080016E07B681B6818460421002201F0B2FD0B
:103C18000EE07B681B6818460021002201F0AAFD0F
:103C28007B681B6818460421002201F0A3FD00BF31
:103C38007B681B681A6A41F211131340002B0FD1DD
:103C48007B681B681A6A40F244431340002B07D173
:103C58007B681B687A681268126822F001021A6091
:103C6800002318460837BD4680BD00BF80B582B026
:103C780000AF786039603B68002B02D0042B10D06D
:103C88001FE07B681B6818460021012201F072FDC5
:103C98007B681B687A681268D26842F00202DA60B0
:103CA8002EE07B681B6818460421012201F062FDA2
:103CB8007B681B687A681268D26842F00402DA608E
:103CC8001EE07B681B6818460021012201F052FDA6
:103CD8007B681B6818460421012201F04BFD7B68B4
:103CE8001B687A681268D26842F00202DA607B6860
:103CF8001B687A681268D26842F00402DA6000BF72
:103D08007B681B687A681268126842F001021A60C0
:103D1800002318460837BD4680BD00BF80B582B075
:103D280000AF786039603B68002B0FD17B681B6857
:103D380018460021002201F01DFD7B681B687A6887
:103D48001268D26822F00202DA6030E03B68042B85
:103D58000FD17B681B6818460421002201F00AFD78
:103D68007B681B687A681268D26822F00402DA60FD
:103D78001DE07B681B6818460021002201F0FAFC50
:103D88007B681B6818460421002201F0F3FC7B685D
:103D98001B687A681268D26822F00202DA607B68CF
:103DA8001B687A681268D26822F00402DA607B68BD
:103DB8001B681A6A41F211131340002B0FD17B685C
:103DC8001B681A6A40F244431340002B07D17B68F2
:103DD8001B687A681268126822F001021A607B6810
:103DE800012283F83920002318460837BD4680BDD4
:103DF80090B585B000AFF860B9607A603B60FB6849
:103E080093F83930DBB2022B01D10223C4E0FB68FE
:103E180093F83930DBB2012B0ED17B68002B02D02E
:103E28003B68002B04D13B8C002B01D00123B3E06D
:103E3800FB68022283F83920BB68042B30D0182B8A
:103E48005AD0002B00D0A6E0FB681B6A544ADA63FC
:103E5800FB681B6A534A9A64FB68196AFB681B680B
:103E680034331C467A683B8C084621460FF032F8FA
:103E7800FB681B68FA681268D26842F40072DA605C
:103E8800FB681B68FA681268126842F001021A603F
:103E9800FB681B6818460021012201F06BFC7AE0E0
:103EA800FB685B6A3E4ADA63FB685B6A3D4A9A6470
:103EB800FB68596AFB681B6838331C463A683B8CB8
:103EC800084621460FF006F8FB681B68FA68126876
:103ED800D26842F48062DA60FB681B68FA6812688C
:103EE800126842F001021A60FB681B681846042138
:103EF800012201F03FFC4EE0FB681B6A284ADA63A6
:103F0800FB681B6A274A9A64FB68196AFB681B6886
:103F180034331C467A683B8C084621460EF0DAFF9B
:103F2800FB685B6A1E4ADA63FB685B6A1D4A9A642F
:103F3800FB68596AFB681B6838331C463A683B8C37
:103F4800084621460EF0C6FFFB681B68FA6812682F
:103F5800126842F001021A60FB681B6818460021CB
:103F6800012201F007FCFB681B68184604210122A6
:103F780001F000FCFB681B68FA681268D26842F41A
:103F88000072DA60FB681B68FA681268D26842F44B
:103F98008062DA6000BF002318461437BD4690BD22
:103FA8000D570008E956000880B582B000AF786068
:103FB80039603B68002B0FD17B681B6818460021CD
:103FC800002201F0D7FB7B681B687A681268D26808
:103FD80022F40072DA6030E03B68042B0FD17B6872
:103FE8001B6818460421002201F0C4FB7B681B688B
:103FF8007A681268D26822F48062DA601DE07B6811
:104008001B6818460021002201F0B4FB7B681B687E
:1040180018460421002201F0ADFB7B681B687A6812
:104028001268D26822F40072DA607B681B687A68CA
:104038001268D26822F48062DA607B681B681A6AA8
:1040480041F211131340002B0FD17B681B681A6AC9
:1040580040F244431340002B07D17B681B687A6801
:104068001268126822F001021A607B68012283F844
:104078003920002318460837BD4680BD80B582B078
:1040880000AF78607B681B681B6903F00203002B94
:1040980022D07B681B68DB6803F00203002B1BD06F
:1040A8007B681B686FF002021A617B6801221A762E
:1040B8007B681B689B6903F00303002B03D07868B7
:1040C80001F0C0F805E0786801F0B2F8786801F00E
:1040D800C3F87B6800221A767B681B681B6903F0AB
:1040E8000403002B22D07B681B68DB6803F0040301
:1040F800002B1BD07B681B686FF004021A617B6879
:1041080002221A767B681B689B6903F44073002BB4
:1041180003D0786801F096F805E0786801F088F82F
:10412800786801F099F87B6800221A767B681B682A
:104138001B6903F00803002B22D07B681B68DB682F
:1041480003F00803002B1BD07B681B686FF0080284
:104158001A617B6804221A767B681B68DB6903F0A6
:104168000303002B03D0786801F06CF805E0786849
:1041780001F05EF8786801F06FF87B6800221A7623
:104188007B681B681B6903F01003002B22D07B6837
:104198001B68DB6803F01003002B1BD07B681B68CF
:1041A8006FF010021A617B6808221A767B681B6818
:1041B800DB6903F44073002B03D0786801F042F800
:1041C80005E0786801F034F8786801F045F87B6814
:1041D80000221A767B681B681B6903F00103002B19
:1041E8000ED07B681B68DB6803F00103002B07D047
:1041F8007B681B686FF001021A617868FCF744F865
:104208007B681B681B6903F08003002B0ED07B685A
:104218001B68DB6803F08003002B07D07B681B68F2
:104228006FF080021A61786803F04AF87B681B68AF
:104238001B6903F04003002B0ED07B681B68DB680A
:1042480003F04003002B07D07B681B686FF0400227
:104258001A61786801F00AF87B681B681B6903F02B
:104268002003002B0ED07B681B68DB6803F020035B
:10427800002B07D07B681B686FF020021A617868F2
:1042880003F014F80837BD4680BD00BF80B584B080
:1042980000AFF860B9607A60FB6893F83830012B9A
:1042A80001D102234EE0FB68012283F83820FB6825
:1042B800022283F839207B680C2B39D801A252F8E6
:1042C80023F000BF014300083943000839430008C0
:1042D800394300080F4300083943000839430008F0
:1042E800394300081D4300083943000839430008D2
:1042F800394300082B430008FB681B681846B96857
:1043080001F07EFA15E0FB681B681846B96801F0F1
:1043180037F90EE0FB681B681846B96801F0E2FA45
:1043280007E0FB681B681846B96801F051FB00E01C
:1043380000BFFB68012283F83920FB68002283F85C
:104348003820002318461037BD4680BD80B584B09C
:1043580000AFF860B9607A60FB6893F83830012BD9
:1043680001D102238AE0FB68012283F83820FB6828
:10437800022283F839207B68002B1BD1FB68186860
:10438800BB681968BB685A68BB68DB6801F07EF8CF
:10439800FB681B68FA681268926922F00C029A613D
:1043A800FB681B68FA6812689169BA6892680A43E0
:1043B8009A615AE07B68042B1CD1FB681868BB68BB
:1043C8001968BB685A68BB68DB6801F021FCFB68A8
:1043D8001B68FA681268926922F440629A61FB6865
:1043E8001B68FA6812689169BA68926812020A43EF
:1043F8009A613AE07B68082B1BD1FB681868BB6898
:104408001968BB685A68BB68DB6801F075FCFB6813
:104418001B68FA681268D26922F00C02DA61FB683C
:104428001B68FA681268D169BA6892680A43DA6147
:104438001BE0FB681868BB681968BB685A68BB68EA
:10444800DB6801F099FCFB681B68FA681268D2699E
:1044580022F44062DA61FB681B68FA681268D16965
:10446800BA68926812020A43DA61FB68012283F88B
:104478003920FB68002283F83820002318461037BB
:10448800BD4680BD80B584B000AFF860B9607A6081
:10449800FB6893F83830012B01D10223B4E0FB68A4
:1044A800012283F83820FB68022283F839207B68D0
:1044B8000C2B00F29F8001A252F823F0F944000867
:1044C800FD450008FD450008FD4500083945000880
:1044D800FD450008FD450008FD4500087B4500082E
:1044E800FD450008FD450008FD450008BB450008DE
:1044F800FB681B681846B96801F082F9FB681B68FD
:10450800FA681268926942F008029A61FB681B68AF
:10451800FA681268926922F004029A61FB681B68C3
:10452800FA6812689169BA6812690A439A6162E086
:10453800FB681B681846B96801F022F8FB681B681D
:10454800FA681268926942F400629A61FB681B6813
:10455800FA681268926922F480629A61FB681B68A3
:10456800FA6812689169BA68126912020A439A6174
:1045780041E0FB681B681846B96801F0B3F9FB68AD
:104588001B68FA681268D26942F00802DA61FB68AF
:104598001B68FA681268D26922F00402DA61FB68C3
:1045A8001B68FA681268D169BA6812690A43DA6145
:1045B80021E0FB681B681846B96801F009FAFB6836
:1045C8001B68FA681268D26942F40062DA61FB6813
:1045D8001B68FA681268D26922F48062DA61FB68A3
:1045E8001B68FA681268D169BA68126912020A432C
:1045F800DA6100E000BFFB68012283F83920FB681C
:10460800002283F83820002318461037BD4680BDA5
:1046180080B58CB000AFF860B9607A603B607A68AA
:104628003B689A4200F0AF80FB6893F83830012B62
:1046380001D10223A8E0FB68012283F83820FB6837
:10464800022283F83920BB681B687B61BB685B6802
:10465800BB61BB689B68FB61BB68DB683B62BB688E
:104668001B69BB62BB685B69FB627B68002B02D07D
:10467800042B09D011E0FB681A6807F114031046EF
:10468800194601F0BDF808E0FB681A6807F1140341
:104698001046194600F074FF00BF3B68002B02D09B
:1046A800042B33D065E0FB681868BB689969BB6860
:1046B800DA69BB681B6A00F0E9FEFB681B68FA68E8
:1046C8001268926922F00C029A61FB681B68FA680A
:1046D8001268926822F070029A60FB681B68FA6898
:1046E8001268926842F050029A60FB681B68FA6888
:1046F8001268926822F007029A60FB681B68FA68E1
:104708001268926842F006029A6032E0FB68186804
:10471800BB689969BB68DA69BB681B6A01F078FAFB
:10472800FB681B68FA681268926922F440629A6111
:10473800FB681B68FA681268926822F070029A6037
:10474800FB681B68FA681268926842F060029A6017
:10475800FB681B68FA681268926822F007029A6080
:10476800FB681B68FA681268926842F006029A6051
:1047780000BFFB68012283F83920FB68002283F818
:104788003820002300E0012318463037BD4680BD9D
:1047980090B585B000AFF860B9607A603B60FB689F
:1047A80093F83930DBB2022B01D10223E8E0FB6831
:1047B80093F83930DBB2012B0BD13B68002B04D1C5
:1047C8003B6A002B01D00123DAE0FB68022283F860
:1047D80039207B68B3F5006F5FD0B3F5006F09D857
:1047E800B3F5007F29D0B3F5806F3ED0B3F5807F55
:1047F8000BD0B2E0B3F5005F7FD0B3F5804F00F087
:104808009480B3F5805F60D0A7E0FB68DB695E4AFF
:10481800DA63FB68DB695D4A9A64FB68D9693A68C0
:10482800FB681B684C331C463B6A1B0A013308466D
:10483800114622460EF04EFB8FE0FB681B6A544A75
:10484800DA63FB681B6A514A9A64FB68196A3A681A
:10485800FB681B684C331C463B6A1B0A013308463D
:10486800114622460EF036FB77E0FB685B6A484A41
:10487800DA63FB685B6A454A9A64FB68596A3A6876
:10488800FB681B684C331C463B6A1B0A013308460D
:10489800114622460EF01EFB5FE0FB689B6A3C4A0D
:1048A800DA63FB689B6A394A9A64FB68996A3A68D2
:1048B800FB681B684C331C463B6A1B0A01330846DD
:1048C800114622460EF006FB47E0FB68DB6A304AD9
:1048D800DA63FB68DB6A2D4A9A64FB68D96A3A682E
:1048E800FB681B684C331C463B6A1B0A01330846AD
:1048F800114622460EF0EEFA2FE0FB681B6B254AA4
:10490800DA63FB681B6B214A9A64FB68196B3A6887
:10491800FB681B684C331C463B6A1B0A013308467C
:10492800114622460EF0D6FA17E0FB685B6B1A4A6E
:10493800DA63FB685B6B154A9A64FB68596B3A68E3
:10494800FB681B684C331C463B6A1B0A013308464C
:10495800114622460EF0BEFA00BFFB681B68B96814
:104968003A6A0A439A64FB681B68FA681268D16855
:104978007A680A43DA60FB68012283F83920002349
:1049880018461437BD4690BDC1570008E9560008BF
:1049980079560008F9720008E557000880B582B01A
:1049A80000AF786039603B68B3F5006F28D0B3F585
:1049B800006F09D8B3F5007F16D0B3F5806F19D012
:1049C800B3F5807F0AD033E0B3F5005F24D0B3F5A8
:1049D800804F27D0B3F5805F18D029E07B68DB696A
:1049E80018460EF0B9FA23E07B681B6A18460EF0E9
:1049F800B3FA1DE07B685B6A18460EF0ADFA17E063
:104A08007B689B6A18460EF0A7FA11E07B68DB6AA0
:104A180018460EF0A1FA0BE07B681B6B18460EF0E7
:104A28009BFA05E07B685B6B18460EF095FA00BFB1
:104A38007B681B687A681268D1683A68D2430A4072
:104A4800DA60002318460837BD4680BD90B585B0AA
:104A580000AFF860B9607A603B60FB6893F8393062
:104A6800DBB2022B01D10223E1E0FB6893F8393075
:104A7800DBB2012B0BD13B68002B04D13B6A002B26
:104A880001D00123D3E0FB68022283F839207B6838
:104A9800B3F5006F5CD0B3F5006F09D8B3F5007FAC
:104AA80028D0B3F5806F3CD0B3F5807F0BD0ABE056
:104AB800B3F5005F7AD0B3F5804F00F08E80B3F580
:104AC800805F5CD0A0E0FB68DB695B4ADA63FB6867
:104AD800DB695A4A9A64FB68D969FB681B684C33DE
:104AE8001C463A683B6A1B0A0133084621460EF009
:104AF800F1F989E0FB681B6A514ADA63FB681B6AB3
:104B08004E4A9A64FB68196AFB681B684C331C465A
:104B18003A683B6A1B0A0133084621460EF0DAF967
:104B280072E0FB685B6A464ADA63FB685B6A434A81
:104B38009A64FB68596AFB681B684C331C463A68E0
:104B48003B6A1B0A0133084621460EF0C3F95BE0B5
:104B5800FB689B6A3A4ADA63FB689B6A374A9A643D
:104B6800FB68996AFB681B684C331C463A683B6AC9
:104B78001B0A0133084621460EF0ACF944E0FB68F5
:104B8800DB6A2F4ADA63FB68DB6A2C4A9A64FB68A3
:104B9800D96AFB681B684C331C463A683B6A1B0A97
:104BA8000133084621460EF095F92DE0FB681B6B92
:104BB800244ADA63FB681B6B204A9A64FB68196B0A
:104BC800FB681B684C331C463A683B6A1B0A013376
:104BD800084621460EF07EF916E0FB685B6B1A4A20
:104BE800DA63FB685B6B154A9A64FB68596BFB6870
:104BF8001B684C331C463A683B6A1B0A013308465B
:104C080021460EF067F900BFFB681B68B9683A6A6D
:104C18000A439A64FB681B68FA681268D1687A6864
:104C28000A43DA60FB68012283F83920002318461A
:104C38001437BD4690BD00BFC1570008E9560008AB
:104C48000D570008F9720008E557000880B582B0D2
:104C580000AF786039603B68B3F5006F28D0B3F5D2
:104C6800006F09D8B3F5007F16D0B3F5806F19D05F
:104C7800B3F5807F0AD033E0B3F5005F24D0B3F5F5
:104C8800804F27D0B3F5805F18D029E07B68DB69B7
:104C980018460EF061F923E07B681B6A18460EF08F
:104CA8005BF91DE07B685B6A18460EF055F917E062
:104CB8007B689B6A18460EF04FF911E07B68DB6A47
:104CC80018460EF049F90BE07B681B6B18460EF08E
:104CD80043F905E07B685B6B18460EF03DF900BFB1
:104CE8007B681B687A681268D1683A68D2430A40C0
:104CF800DA60002318460837BD4680BD80B483B00B
:104D080000AF786039607B6893F83830012B01D1A7
:104D1800022314E07B68012283F838207B68022292
:104D280083F839207B681B683A685A617B680122DE
:104D380083F839207B68002283F83820002318463E
:104D48000C37BD465DF8047B704700BF80B584B062
:104D580000AFF860B9607A60FB6893F83830012BCF
:104D680001D1022398E0FB68012283F83820FB6810
:104D7800022283F83920BB685B68012B09D1FB68E4
:104D88001868BB68D968BB689A68BB681B6901F07A
:104D980053F87B680C2B75D801A252F823F000BF9A
:104DA800DD4D00088D4E00088D4E00088D4E000820
:104DB800094E00088D4E00088D4E00088D4E0008E3
:104DC800354E00088D4E00088D4E00088D4E0008A7
:104DD800614E0008BB681B68002B08D0FB681B6885
:104DE800FA681268926942F080029A614BE0FB68A7
:104DF8001B68FA681268926922F080029A6142E0A0
:104E0800BB681B68002B08D0FB681B68FA6812682F
:104E1800926942F400429A6135E0FB681B68FA68BF
:104E28001268926922F400429A612CE0BB681B6800
:104E3800002B08D0FB681B68FA681268D26942F038
:104E48008002DA611FE0FB681B68FA681268D269A1
:104E580022F08002DA6116E0BB681B68002B08D0DC
:104E6800FB681B68FA681268D26942F40042DA618A
:104E780009E0FB681B68FA681268D26922F40042EC
:104E8800DA6100E000BFFB68012283F83920FB6883
:104E9800002283F83820002318461037BD4680BD0D
:104EA80080B584B000AF786039600023FB607B6810
:104EB80093F83830012B01D10223CFE07B6801221F
:104EC80083F838207B68022283F839207B681B68C6
:104ED8009B68FB60FB6823F07703FB60FB6823F4A7
:104EE8007F43FB607B681B68FA689A603B681B68B5
:104EF800402B7CD0402B0FD8102B00F09180102B2A
:104F080003D8002B00F085809FE0202B00F08F80D5
:104F1800302B00F0938098E0702B16D0702B04D8BB
:104F2800502B40D0602B50D08FE0B3F5805F03D07A
:104F3800B3F5005F24D088E07B681B687A68126844
:104F4800926822F007029A607FE07B6818683B68E5
:104F580099683B685A683B68DB6800F06DFF7B68BE
:104F68001B689B68FB60FB6823F07703FB60FB68AA
:104F780043F07703FB607B681B68FA689A6064E01B
:104F88007B6818683B6899683B685A683B68DB68C7
:104F980000F052FF7B681B687A681268926842F4D6
:104FA80080429A6051E07B6819683B685A683B68A0
:104FB800DB68084611461A4600F0F8FD7B681B6856
:104FC8001846502100F018FF3FE07B6819683B68DD
:104FD8005A683B68DB68084611461A4600F058FED6
:104FE8007B681B681846602100F006FF2DE07B688F
:104FF80019683B685A683B68DB68084611461A46D8
:1050080000F0D4FD7B681B681846402100F0F4FED0
:105018001BE07B681B681846002100F0EDFE14E0D9
:105028007B681B681846102100F0E6FE0DE07B68DF
:105038001B681846202100F0DFFE06E07B681B682D
:105048001846302100F0D8FE00BF7B68012283F8A3
:1050580039207B68002283F838200023184610374F
:10506800BD4680BD80B485B000AF7860396000234C
:10507800FB607B681B685B68FB60FB6823F0800350
:10508800FB60FA683B681343FB607B681B68FA683F
:105098005A60002318461437BD465DF8047B7047F4
:1050A80080B582B000AF786039607B6893F838309B
:1050B800012B01D1022324E07B68012283F83820E8
:1050C8007B68022283F839207868396800F0E0FCB0
:1050D8007B681B687A681268D26822F04002DA603E
:1050E8007B681B687A681268D26822F48042DA60AA
:1050F8007B68012283F839207B68002283F83820F6
:10510800002318460837BD4680BD00BF80B582B071
:1051180000AF786039607B6893F83830012B01D193
:10512800022324E07B68012283F838207B6802226E
:1051380083F839207868396800F0AAFC7B681B6816
:105148007A681268D26842F04002DA607B681B68AD
:105158007A681268D26822F48042DA607B68012299
:1051680083F839207B68002283F83820002318460A
:105178000837BD4680BD00BF80B485B000AF7860F9
:1051880039600023FB607B6893F83830012B01D12C
:1051980002233DE07B68012283F838203B680C2B12
:1051A80030D801A252F823F0E55100080D5200084A
:1051B8000D5200080D520008EF5100080D5200086A
:1051C8000D5200080D520008F95100080D52000850
:1051D8000D5200080D520008035200087B681B6836
:1051E8005B6BFB600FE07B681B689B6BFB600AE0F6
:1051F8007B681B68DB6BFB6005E07B681B681B6CCE
:10520800FB6000E000BF7B68002283F83820FB6861
:1052180018461437BD465DF8047B704780B483B0E8
:1052280000AF78600C37BD465DF8047B704700BF5F
:1052380080B483B000AF78600C37BD465DF8047B5E
:10524800704700BF80B483B000AF78600C37BD46AC
:105258005DF8047B704700BF80B483B000AF78600E
:105268000C37BD465DF8047B704700BF80B483B03F
:1052780000AF78600C37BD465DF8047B704700BF0F
:1052880080B483B000AF78600C37BD465DF8047B0E
:10529800704700BF80B483B000AF78607B6893F834
:1052A8003930DBB218460C37BD465DF8047B7047D1
:1052B80080B483B000AF78607B6893F83930DBB294
:1052C80018460C37BD465DF8047B704780B483B040
:1052D80000AF78607B6893F83930DBB218460C373A
:1052E800BD465DF8047B704780B483B000AF78603A
:1052F8007B6893F83930DBB218460C37BD465DF849
:10530800047B704780B483B000AF78607B6893F803
:105318003930DBB218460C37BD465DF8047B704760
:1053280080B483B000AF78607B6893F83930DBB223
:1053380018460C37BD465DF8047B704780B485B0CD
:1053480000AF786039600023FB607B681B68FB60F6
:105358007B68434A934213D07B68B3F1804F0FD0E8
:105368007B68404A93420BD07B683F4A934207D000
:105378007B683E4A934203D07B683D4A934201D101
:10538800012300E00023002B08D0FB6823F0700302
:10539800FB603B685B68FA681343FB607B68304AD4
:1053A80093422BD07B68B3F1804F27D07B682D4A7E
:1053B800934223D07B682C4A93421FD07B682B4AA8
:1053C80093421BD07B682A4A934217D07B68294AAC
:1053D800934213D07B68284A93420FD07B68274AB0
:1053E80093420BD07B68264A934207D07B68254AB4
:1053F800934203D07B68244A934201D1012300E001
:105408000023002B08D0FB6823F44073FB603B6843
:10541800DB68FA681343FB607B68FA681A603B68CC
:105428009A687B68DA623B681A687B689A627B686C
:105438000B4A934203D07B680D4A934201D1012362
:1054480000E00023002B03D03B681A697B681A63CD
:105458007B6801225A611437BD465DF8047B7047AA
:10546800000001400004004000080040000C00401B
:105478000004014000400140004401400048014050
:1054880000180040001C00400020004080B487B095
:1054980000AFF860B9607A603B6000237B6100234D
:1054A8003B61FB681B6A23F00102FB681A62FB6818
:1054B8009B697B61FB681B6A3B61FB68294A9342D5
:1054C8001BD0FB68B3F1804F17D0FB68264A934284
:1054D80013D0FB68254A93420FD0FB68244A9342B5
:1054E8000BD0FB68234A934207D0FB68224A9342B9
:1054F80003D0FB68214A934201D1012300E0002335
:10550800002B08D07B6923F003037B617A697B68F1
:1055180013437B6107E07B6923F003037B617B69AD
:1055280043F001037B617B6923F0F0037B613B68F7
:105538001B01DBB27A6913437B613B6923F00A03E1
:105548003B61BB6803F00A033A6913433B61FB689C
:105558007A699A61FB683A691A621C37BD465DF838
:10556800047B704700000140000400400008004030
:10557800000C0040000401400040014000180040B9
:1055880080B487B000AF786039600023FB600023E7
:105598007B6100233B617B681B6A23F010027B68F8
:1055A8001A627B681B6A7B617B685B683B617B680E
:1055B8009B69FB60FB6823F4E043FB60FB6823F412
:1055C8004073FB603B681B681B02FA681343FB606F
:1055D8007B6923F020037B613B689B681B017A6928
:1055E80013437B617B68204A934203D07B681F4A40
:1055F800934201D1012300E00023002B21D07B69D5
:1056080023F080037B613B68DB681B017A691343E5
:105618007B617B6923F040037B613B6923F48063F2
:105628003B613B6923F400633B613B685B699B001A
:105638003A6913433B613B689B699B003A69134392
:105648003B617B683A695A607B68FA689A613B6893
:105658005A687B689A637B687A691A621C37BD4608
:105668005DF8047B704700BF000001400004014062
:1056780080B584B000AF78607B689B6BFB60FB688B
:10568800012283F83920FB681A6A7B689A4203D1A1
:10569800FB6801221A7619E0FB685A6A7B689A420D
:1056A80003D1FB6802221A7610E0FB689A6A7B68CD
:1056B8009A4203D1FB6804221A7607E0FB68DA6A8B
:1056C8007B689A4202D1FB6808221A76F868FFF7CD
:1056D800C3FDFB6800221A761037BD4680BD00BFA7
:1056E80080B584B000AF78607B689B6BFB60FB681B
:1056F800012283F83920F868FFF7C2FD1037BD464C
:1057080080BD00BF80B584B000AF78607B689B6BBC
:10571800FB60FB68012283F83920FB681A6A7B6802
:105728009A4203D1FB6801221A7619E0FB685A6A8B
:105738007B689A4203D1FB6802221A7610E0FB6864
:105748009A6A7B689A4203D1FB6804221A7607E0BA
:10575800FB68DA6A7B689A4202D1FB6808221A76EB
:10576800F868FFF76FFDFB6800221A761037BD4610
:1057780080BD00BF80B487B000AFF860B9607A60C0
:1057880000237B61BB68012202FA03F37B61FB689B
:105798001A6A7B69DB431A40FB681A62FB681A6A5B
:1057A800BB68796801FA03F31A43FB681A621C376D
:1057B800BD465DF8047B704780B584B000AF786063
:1057C8007B689B6BFB60FB68012283F83920F868D3
:1057D800FAF75AFD1037BD4680BD00BF80B584B0CA
:1057E80000AF78607B689B6BFB60FB68012283F8E5
:1057F8003920F868FFF73AFD1037BD4680BD00BF75
:1058080080B487B000AF786039600023FB60002364
:105818007B6100233B617B681B6A23F001027B6884
:105828001A627B681B6A7B617B685B683B617B688B
:105838009B69FB60FB6823F07003FB60FB6823F047
:105848000303FB603B681B68FA681343FB607B69D2
:1058580023F002037B613B689B687A6913437B6191
:105868007B681E4A934203D07B681D4A934201D14C
:10587800012300E00023002B1ED07B6923F00803DE
:105888007B613B68DB687A6913437B617B6923F042
:1058980004037B613B6923F480733B613B6923F418
:1058A80000733B613B685B693A6913433B613B6842
:1058B8009B693A6913433B617B683A695A607B6824
:1058C800FA689A613B685A687B685A637B687A69A8
:1058D8001A621C37BD465DF8047B70470000014022
:1058E8000004014080B487B000AF786039600023BD
:1058F800FB6000237B6100233B617B681B6A23F408
:1059080080727B681A627B681B6A7B617B685B6854
:105918003B617B68DB69FB60FB6823F07003FB601D
:10592800FB6823F00303FB603B681B68FA681343BA
:10593800FB607B6923F400737B613B689B681B02F7
:105948007A6913437B617B681F4A934203D07B6863
:105958001E4A934201D1012300E00023002B21D0ED
:105968007B6923F400637B613B68DB681B027A690F
:1059780013437B617B6923F480637B613B6923F478
:1059880080533B613B6923F400533B613B685B698F
:105998001B013A6913433B613B689B691B013A69E8
:1059A80013433B617B683A695A607B68FA68DA613D
:1059B8003B685A687B68DA637B687A691A621C37C5
:1059C800BD465DF8047B70470000014000040140BB
:1059D80080B487B000AF7860396000233B61002352
:1059E800FB6000237B617B681B6A23F480527B6821
:1059F8001A627B681B6AFB607B685B687B617B68FB
:105A0800DB693B613B6923F4E0433B613B6923F479
:105A180040733B613B681B681B023A6913433B6157
:105A2800FB6823F40053FB603B689B681B03FA6820
:105A38001343FB607B68144A934203D07B68134A84
:105A4800934201D1012300E00023002B09D07B6998
:105A580023F480437B613B685B699B017A6913434C
:105A68007B617B687A695A607B683A69DA613B686E
:105A78005A687B681A647B68FA681A621C37BD46E4
:105A88005DF8047B704700BF00000140000401403E
:105A980080B586B000AF7860396000237B61002351
:105AA8003B610023FB607B681B689B687B617B69AB
:105AB80023F070037B613B685B687A6913437B6101
:105AC8007B6923F007037B613B681B687A69134392
